{
    "_format": "hh-sol-artifact-1",
    "contractName": "BuyMeACoffee",
    "sourceName": "contracts/BuyMeACoffee.sol",
    "abi": [
        {
            "inputs": [],
            "stateMutability": "nonpayable",
            "type": "constructor"
        },
        {
            "anonymous": false,
            "inputs": [
                {
                    "indexed": true,
                    "internalType": "address",
                    "name": "from",
                    "type": "address"
                },
                {
                    "indexed": false,
                    "internalType": "uint256",
                    "name": "timestamp",
                    "type": "uint256"
                },
                {
                    "indexed": false,
                    "internalType": "string",
                    "name": "name",
                    "type": "string"
                },
                {
                    "indexed": false,
                    "internalType": "string",
                    "name": "message",
                    "type": "string"
                }
            ],
            "name": "NewMemo",
            "type": "event"
        },
        {
            "inputs": [
                {
                    "internalType": "string",
                    "name": "_name",
                    "type": "string"
                },
                {
                    "internalType": "string",
                    "name": "_message",
                    "type": "string"
                }
            ],
            "name": "buyCoffee",
            "outputs": [],
            "stateMutability": "payable",
            "type": "function"
        },
        {
            "inputs": [
                {
                    "internalType": "address",
                    "name": "_newOwner",
                    "type": "address"
                }
            ],
            "name": "changeOwner",
            "outputs": [],
            "stateMutability": "nonpayable",
            "type": "function"
        },
        {
            "inputs": [],
            "name": "getMemos",
            "outputs": [
                {
                    "components": [
                        {
                            "internalType": "address",
                            "name": "from",
                            "type": "address"
                        },
                        {
                            "internalType": "uint256",
                            "name": "timestamp",
                            "type": "uint256"
                        },
                        {
                            "internalType": "string",
                            "name": "name",
                            "type": "string"
                        },
                        {
                            "internalType": "string",
                            "name": "message",
                            "type": "string"
                        }
                    ],
                    "internalType": "struct BuyMeACoffee.Memo[]",
                    "name": "",
                    "type": "tuple[]"
                }
            ],
            "stateMutability": "view",
            "type": "function"
        },
        {
            "inputs": [],
            "name": "getOwner",
            "outputs": [
                {
                    "internalType": "address",
                    "name": "",
                    "type": "address"
                }
            ],
            "stateMutability": "view",
            "type": "function"
        },
        {
            "inputs": [],
            "name": "withdrawTips",
            "outputs": [],
            "stateMutability": "nonpayable",
            "type": "function"
        }
    ],
    "bytecode": "0x608060405234801561001057600080fd5b50336000806101000a81548173ffffffffffffffffffffffffffffffffffffffff021916908373ffffffffffffffffffffffffffffffffffffffff160217905550610e15806100606000396000f3fe60806040526004361061004a5760003560e01c8063204206e11461004f5780633aaa74b21461006b578063865c517214610082578063893d20e8146100ad578063a6f9dae1146100d8575b600080fd5b6100696004803603810190610064919061079d565b610101565b005b34801561007757600080fd5b50610080610289565b005b34801561008e57600080fd5b50610097610377565b6040516100a49190610a2e565b60405180910390f35b3480156100b957600080fd5b506100c261055a565b6040516100cf9190610a13565b60405180910390f35b3480156100e457600080fd5b506100ff60048036038101906100fa9190610774565b610583565b005b60003411610144576040517f08c379a000000000000000000000000000000000000000000000000000000000815260040161013b90610a50565b60405180910390fd5b600160405180608001604052803373ffffffffffffffffffffffffffffffffffffffff16815260200142815260200184815260200183815250908060018154018082558091505060019003906000526020600020906004020160009091909190915060008201518160000160006101000a81548173ffffffffffffffffffffffffffffffffffffffff021916908373ffffffffffffffffffffffffffffffffffffffff160217905550602082015181600101556040820151816002019080519060200190610213929190610654565b506060820151816003019080519060200190610230929190610654565b5050503373ffffffffffffffffffffffffffffffffffffffff167fc56140e05f516509ae28110e0f72e17558a7561630dad2647c3ae87d986e365c42848460405161027d93929190610ab0565b60405180910390a25050565b3373ffffffffffffffffffffffffffffffffffffffff1660008054906101000a900473ffffffffffffffffffffffffffffffffffffffff1673ffffffffffffffffffffffffffffffffffffffff1614610317576040517f08c379a000000000000000000000000000000000000000000000000000000000815260040161030e90610a70565b60405180910390fd5b60008054906101000a900473ffffffffffffffffffffffffffffffffffffffff1673ffffffffffffffffffffffffffffffffffffffff166108fc479081150290604051600060405180830381858888f1935050505061037557600080fd5b565b60606001805480602002602001604051908101604052809291908181526020016000905b8282101561055157838290600052602060002090600402016040518060800160405290816000820160009054906101000a900473ffffffffffffffffffffffffffffffffffffffff1673ffffffffffffffffffffffffffffffffffffffff1673ffffffffffffffffffffffffffffffffffffffff1681526020016001820154815260200160028201805461042e90610c2f565b80601f016020809104026020016040519081016040528092919081815260200182805461045a90610c2f565b80156104a75780601f1061047c576101008083540402835291602001916104a7565b820191906000526020600020905b81548152906001019060200180831161048a57829003601f168201915b505050505081526020016003820180546104c090610c2f565b80601f01602080910402602001604051908101604052809291908181526020018280546104ec90610c2f565b80156105395780601f1061050e57610100808354040283529160200191610539565b820191906000526020600020905b81548152906001019060200180831161051c57829003601f168201915b5050505050815250508152602001906001019061039b565b50505050905090565b60008060009054906101000a900473ffffffffffffffffffffffffffffffffffffffff16905090565b3373ffffffffffffffffffffffffffffffffffffffff1660008054906101000a900473ffffffffffffffffffffffffffffffffffffffff1673ffffffffffffffffffffffffffffffffffffffff1614610611576040517f08c379a000000000000000000000000000000000000000000000000000000000815260040161060890610a90565b60405180910390fd5b806000806101000a81548173ffffffffffffffffffffffffffffffffffffffff021916908373ffffffffffffffffffffffffffffffffffffffff16021790555050565b82805461066090610c2f565b90600052602060002090601f01602090048101928261068257600085556106c9565b82601f1061069b57805160ff19168380011785556106c9565b828001600101855582156106c9579182015b828111156106c85782518255916020019190600101906106ad565b5b5090506106d691906106da565b5090565b5b808211156106f35760008160009055506001016106db565b5090565b600061070a61070584610b1a565b610af5565b90508281526020810184848401111561072257600080fd5b61072d848285610bed565b509392505050565b60008135905061074481610dc8565b92915050565b600082601f83011261075b57600080fd5b813561076b8482602086016106f7565b91505092915050565b60006020828403121561078657600080fd5b600061079484828501610735565b91505092915050565b600080604083850312156107b057600080fd5b600083013567ffffffffffffffff8111156107ca57600080fd5b6107d68582860161074a565b925050602083013567ffffffffffffffff8111156107f357600080fd5b6107ff8582860161074a565b9150509250929050565b6000610815838361098b565b905092915050565b61082681610bb1565b82525050565b61083581610bb1565b82525050565b600061084682610b5b565b6108508185610b7e565b93508360208202850161086285610b4b565b8060005b8581101561089e578484038952815161087f8582610809565b945061088a83610b71565b925060208a01995050600181019050610866565b50829750879550505050505092915050565b60006108bb82610b66565b6108c58185610b8f565b93506108d5818560208601610bfc565b6108de81610cf0565b840191505092915050565b60006108f482610b66565b6108fe8185610ba0565b935061090e818560208601610bfc565b61091781610cf0565b840191505092915050565b600061092f601a83610ba0565b915061093a82610d01565b602082019050919050565b6000610952602383610ba0565b915061095d82610d2a565b604082019050919050565b6000610975602b83610ba0565b915061098082610d79565b604082019050919050565b60006080830160008301516109a3600086018261081d565b5060208301516109b660208601826109f5565b50604083015184820360408601526109ce82826108b0565b915050606083015184820360608601526109e882826108b0565b9150508091505092915050565b6109fe81610be3565b82525050565b610a0d81610be3565b82525050565b6000602082019050610a28600083018461082c565b92915050565b60006020820190508181036000830152610a48818461083b565b905092915050565b60006020820190508181036000830152610a6981610922565b9050919050565b60006020820190508181036000830152610a8981610945565b9050919050565b60006020820190508181036000830152610aa981610968565b9050919050565b6000606082019050610ac56000830186610a04565b8181036020830152610ad781856108e9565b90508181036040830152610aeb81846108e9565b9050949350505050565b6000610aff610b10565b9050610b0b8282610c61565b919050565b6000604051905090565b600067ffffffffffffffff821115610b3557610b34610cc1565b5b610b3e82610cf0565b9050602081019050919050565b6000819050602082019050919050565b600081519050919050565b600081519050919050565b6000602082019050919050565b600082825260208201905092915050565b600082825260208201905092915050565b600082825260208201905092915050565b6000610bbc82610bc3565b9050919050565b600073ffffffffffffffffffffffffffffffffffffffff82169050919050565b6000819050919050565b82818337600083830152505050565b60005b83811015610c1a578082015181840152602081019050610bff565b83811115610c29576000848401525b50505050565b60006002820490506001821680610c4757607f821691505b60208210811415610c5b57610c5a610c92565b5b50919050565b610c6a82610cf0565b810181811067ffffffffffffffff82111715610c8957610c88610cc1565b5b80604052505050565b7f4e487b7100000000000000000000000000000000000000000000000000000000600052602260045260246000fd5b7f4e487b7100000000000000000000000000000000000000000000000000000000600052604160045260246000fd5b6000601f19601f8301169050919050565b7f43616e27742062757920636f6666656520666f72206672656521000000000000600082015250565b7f4f6e6c7920746865206f776e65722063616e207472696767657220612070617960008201527f6f75740000000000000000000000000000000000000000000000000000000000602082015250565b7f4f6e6c7920746865206f776e65722063616e206368616e676520746865206f7760008201527f6e65722061646472657373000000000000000000000000000000000000000000602082015250565b610dd181610bb1565b8114610ddc57600080fd5b5056fea2646970667358221220444ff2d89e49f70238315bcda28ddf84463a1839de1ee1c0b1f01281086f21a564736f6c63430008040033",
    "linkReferences": {},
    "deployedLinkReferences": {}
}